:1007000000040010210000000000000000000000B4
:10071000000000000000000000000000DFFBFFEF11
:100720002F48DF2101602F4801680322D243114086
:1007300001602D482D4901602D480C2101600124E4
:1007400024070A2630022060002000210246022AE7
:1007500000DD033A00230125284200D033465B1A0E
:10076000002B00DA5B42A3547FB400F015F800F0D0
:1007700033F87FBC214AA3181F46033F033A013BCD
:10078000013F3D781D70013AF9D10131B142DDD10F
:1007900001300628D9D1D7E718482146154C042244
:1007A00080250B7822602B4208D00000000000005A
:1007B0000000000000000000226007E0000022604E
:1007C0000000000000000000000000006D08E9D1FA
:1007D000491C0138E4D17047074F013FFDD17047F4
:1007E0008080044010000440C0C10040BFFFFFFFF4
:1007F000002000A0002300A0801A06000C000000CA
:00000001FF
