:10000000000400100D020000C9000000C90000003B
:1000100000000000000000000000000000000000E0
:10002000000000000000000000000000C900000007
:100030000000000000000000C9000000C90000002E
:10004000C9000000C900000000000000CD00000051
:10005000C9000000C900000000000000000000000E
:10006000C9000000C9000000C9000000C90000006C
:10007000C9000000C900000000000000C900000025
:100080000000000000000000000000000000000070
:100090000000000000000000000000000000000060
:1000A000C9000000C9000000C9000000C90000002C
:1000B000C9000000C9000000C9000000C90000001C
:1000C000D403000000000000FEE700000E4B0F49C3
:1000D00058690F4B10B51A680C680132A24211D052
:1000E0001A68FF2A02D10A68002A0BD01A68511C2C
:1000F000196008498854802219685200914201D140
:1001000000221A6010BDC0460040064004000010E6
:100110000000001008000010F7B508251E4F1F4A08
:100120001F4B00901A603B1DDD67802301261D4A8E
:10013000DB0111681C4C0B4313601C4B00991E60C3
:100140001B4B1C481A68AA431A601A682A431A6093
:100150000423236000F0B2F8FF22174B013820621D
:100160001A601868216A1B6889190193831911485C
:100170005843009B4B43190000F0A0F8019BDB4360
:10018000C0180E4B186082231B01A360E6603D601F
:10019000236833432360F7BD00E100E00400FFFF64
:1001A00000C000408080044000400640948004402D
:1001B00004800440B0710B00F0800440F4800440DF
:1001C0000422034B99681142FCD0D8617047C046A5
:1001D000004006400A4B0B4A1968126891420CD045
:1001E0001A68511C19600849885C802219685200FD
:1001F000914201D100221A60704701204042FBE782
:10020000040000100000001008000010802337B523
:100210000021214A5B05197001339342FBD11F4B2A
:1002200003CB0023CA1A002A2EDC1D4A1D4B11687D
:10023000E1200B43032113601B4A400213682A2468
:100240008B4313604122194B52421A600C23184A07
:10025000042511680B431360FFF75EFFFFF7BAFF39
:10026000002800DB0400E0B2FFF7AAFF114A136880
:100270002B4313600023104A0193019B9342EDDC52
:10028000019B01330193F8E780221C5C52059A1808
:1002900014700133C6E7C04600040010C00000001F
:1002A00080800440C000040010000440C0C1004031
:1002B000002000A0002300A05FEA00000022430805
:1002C0008B4274D303098B425FD3030A8B4244D31E
:1002D000030B8B4228D3030C8B420DD3FF22090260
:1002E00012BA030C8B4202D31212090265D0030B1F
:1002F0008B4219D300E0090AC30B8B4201D3CB0315
:10030000C01A5241830B8B4201D38B03C01A524156
:10031000430B8B4201D34B03C01A5241030B8B4258
:1003200001D30B03C01A5241C30A8B4201D3CB0243
:10033000C01A5241830A8B4201D38B02C01A524128
:10034000430A8B4201D34B02C01A5241030A8B422B
:1003500001D30B02C01A5241CDD2C3098B4201D343
:10036000CB01C01A524183098B4201D38B01C01AC1
:10037000524143098B4201D34B01C01A5241030938
:100380008B4201D30B01C01A5241C3088B4201D3E7
:10039000CB00C01A524183088B4201D38B00C01A94
:1003A000524143088B4201D34B00C01A5241411ABB
:1003B00000D20146524110467047FFE701B50020C8
:1003C00000F006F802BDC0460029F7D076E7704776
:0403D0007047C0466C
:00000001FF
