:1000000000040010C5000000C1000000C100000095
:1000100000000000000000000000000000000000E0
:10002000000000000000000000000000C10000000F
:100030000000000000000000C1000000C10000003E
:10004000C1000000C100000000000000C10000006D
:10005000C1000000C100000000000000000000001E
:10006000C1000000C1000000C1000000C10000008C
:10007000C1000000C100000000000000C10000003D
:100080000000000000000000000000000000000070
:100090000000000000000000000000000000000060
:1000A000C1000000C1000000C1000000C10000004C
:1000B000C1000000C1000000C1000000C10000003C
:1000C000FEE70000802313B500211B4A5B05197071
:1000D00001339342FBD18021184B49051A685B68B4
:1000E0005C18D218E01AD11A002B21DC144A154BE7
:1000F000116800200B4303211360134A134C13684B
:100100008B4313604122124B52421A600C23114A56
:1001100011680B43042113600F4A13680B431360EB
:100120000190019BA342F8DC019B01330193F8E7A6
:100130000978013B0170D5E700040010C000000001
:10014000808004404000040010000440BF270900E4
:0C015000C0C10040002000A0002300A05F
:00000001FF
