:1000000000040010E1010000C9000000C900000068
:1000100000000000000000000000000000000000E0
:10002000000000000000000000000000C900000007
:100030000000000000000000C9000000CD0000002A
:10004000C9000000C900000000000000C900000055
:10005000C9000000C900000000000000000000000E
:10006000C9000000C9000000C9000000C90000006C
:10007000C9000000C900000000000000C900000025
:100080000000000000000000000000000000000070
:100090000000000000000000000000000000000060
:1000A000C9000000C9000000C9000000C90000002C
:1000B000C9000000C9000000C9000000C90000001C
:1000C0009403000000000000FEE70000024A1368ED
:1000D000013313607047C04600000010F7B50825D3
:1000E0001D4F1E4A1E4B1F4C1A603B1DDD678023AF
:1000F0001D4ADB01116806000B43136001221B4BF4
:1001000001001A601A4B1B481A68AA431A601A6841
:100110002A431A600423236000F0B0F8FF22164B34
:10012000013820621A601868216A1B680131019346
:10013000431C10487143584300F0A0F8019B012272
:10014000DB43C0180D4B186082231B01A3603D6088
:10015000236813432360F7BD00E100E00400FFFFC4
:1001600000C000400040064080800440948004406D
:1001700004800440B0710B00F0800440F48004401F
:100180000422034B99681142FCD0D8617047C046E5
:100190000040064080210020084A0906131D10B5C2
:1001A000D967074B074C1860074B5C619861116079
:1001B000072219690A431A6110BDC04600E100E038
:1001C000000000100F27000000E000E0034A136861
:1001D000181813689842FCD87047C04600000010F9
:1001E0008023002170B51D4A5B05197001339342CD
:1001F000FBD11B4B03CB0023CA1A002A26DC194A69
:10020000194B1168E1200B4303211360174A400288
:100210001368FA248B4313604122154B52421A6033
:100220000C23144A04251168A4000B431360FFF744
:1002300055FFFFF7AFFF2A20FFF7A2FF0E4A20006D
:1002400013682B431360FFF7C1FFF4E780221C5CA7
:1002500052059A1814700133CEE7C046000400100E
:10026000C000000080800440C00004001000044072
:10027000C0C10040002000A0002300A000224308CD
:100280008B4274D303098B425FD3030A8B4244D35E
:10029000030B8B4228D3030C8B420DD3FF220902A0
:1002A00012BA030C8B4202D31212090265D0030B5F
:1002B0008B4219D300E0090AC30B8B4201D3CB0355
:1002C000C01A5241830B8B4201D38B03C01A524197
:1002D000430B8B4201D34B03C01A5241030B8B4299
:1002E00001D30B03C01A5241C30A8B4201D3CB0284
:1002F000C01A5241830A8B4201D38B02C01A524169
:10030000430A8B4201D34B02C01A5241030A8B426B
:1003100001D30B02C01A5241CDD2C3098B4201D383
:10032000CB01C01A524183098B4201D38B01C01A01
:10033000524143098B4201D34B01C01A5241030978
:100340008B4201D30B01C01A5241C3088B4201D327
:10035000CB00C01A524183088B4201D38B00C01AD4
:10036000524143088B4201D34B00C01A5241411AFB
:1003700000D20146524110467047FFE701B5002008
:1003800000F006F802BDC0460029F7D076E77047B6
:040390007047C046AC
:00000001FF
