:1000000000040010E9040000C9000000C90000005D
:1000100000000000000000000000000000000000E0
:10002000000000000000000000000000C900000007
:100030000000000000000000C9000000CD0000002A
:10004000C9000000C900000000000000C900000055
:10005000C9000000C900000000000000000000000E
:10006000C9000000C9000000C9000000C90000006C
:10007000C9000000C900000000000000C900000025
:100080000000000000000000000000000000000070
:100090000000000000000000000000000000000060
:1000A000C9000000C9000000C9000000C90000002C
:1000B000C9000000C9000000C9000000C90000001C
:1000C000AC08000008000000FEE70000024A1368C8
:1000D000013313607047C04608000010002382B04F
:1000E0000193019B834201DB02B07047019B013306
:1000F000F6E700000C4B70B51A003C3215781A0078
:100100003D3214781A003E321078002299180E0001
:100110003B3636783E31013A0E7011003C31F5D154
:100120001D705C70987070BD0C0000108021002064
:10013000084A0906131D10B5D967074B074C18600C
:10014000074B5C6198611160072219690A431A61C3
:1001500010BDC04600E100E0080000100F270000BD
:1001600000E000E010B5034B03491B683F209847AF
:1001700010BDC046040000100C0000100100052056
:10018000044A10B5136858430130106000F07AFA41
:10019000080010BD000000100323434303480A1267
:1001A000C254C0180B144370817070470C000010CB
:1001B0000023190003481A18013311703F2BFAD19C
:1001C0007047C0460C000010F7B50E0001901400F7
:1001D000002948DD3C2100F03FFB3B20401A0F0086
:1001E00060433C2100F052FA64217043494200F020
:1001F0004DFA051938003C21604300F047FA6421AC
:100200007043494200F042FA64210719881B604399
:1002100000F03CFA3C210600019800F037FA062174
:1002200000F01AFB05291ED8080000F09BF903070F
:100230000F13171A33002E001D0002E035002600B0
:100240003C003602200430432843FEBD2300340026
:100250001E00F6E7250034003E00F2E723002C00E4
:10026000EAE73D00EDE725002600EAE770B5002843
:1002700002D1FFF73FFF70BD0322094B1C7858786D
:1002800099789E5CD51E01325E553F2AF9D11A003D
:100290003C3214701A003E333D3210701970EAE798
:1002A0000C000010F8B5FFF783FF3C26002414274C
:1002B0000521200000F0D0FA20000D00032100F0FD
:1002C000CBFA154B00291DD1002D03D11F705F7093
:1002D0009D7002E019705F709970FFF743FF0F483F
:1002E000FFF7FCFEFFF706FF0D4B01341D78EDB262
:1002F000002D02D1FFF75CFF2C00013E002ED7D16C
:100300003000F8BD002D02D11F705D70E0E70022C3
:100310001A705A709A70E0E70C000010E093040025
:10032000030000A0F8B59625070000266D00002404
:1003300009E03A1B50213000FFF746FF0100200082
:10034000FFF72AFF0134BC42F3DBFFF70BFF0A483B
:10035000FFF7C4FE3000094B0B301B78002B00D098
:10036000701CB421490000F077FA013D0E00002D09
:10037000DDD12800F8BDC04630750000030000A0A4
:10038000F7B51E250190002612E01420FFF7F6FEB7
:1003900004001420FFF7F2FE07001420FFF7EEFE22
:1003A0003F022104394301433000FFF7F5FE0136D7
:1003B000019B9E42E9DBFFF7D5FE074B1B78002B24
:1003C00007D10648013DFFF789FE002DDBD128004B
:1003D000FEBD0348F6E7C046030000A050C300007E
:1003E00020A1070070B5B426050000247600AC42B9
:1003F0001DDBFA249626002564007600FFF7B2FE86
:100400001248FFF76BFE124B1B78DBB2002B06D1B4
:10041000104A1168B14202D9136001335D402800CF
:10042000013CFFF723FF002CE8D1200070BD29001C
:10043000300000F02BF90A2260436421FFF7C4FE6C
:1004400001002000FFF7A8FE0134D0E7307500005E
:10045000030000A00800001070B596240500640099
:10046000FFF7A6FE2800FFF789FE0949FFF794FE73
:10047000FFF778FE074B1B78002B07D10648013C9D
:10048000FFF72CFE002CEBD1200070BD0348F6E7EF
:1004900028282800030000A08813000050C3000093
:1004A00070B505000424601E032803D800F05AF834
:1004B0000B0F13172800FFF795FF601C052100F0B4
:1004C000CBF90C00EFE72800FFF72CFFF5E7280039
:1004D000FFF7E8FEF1E72800FFF752FFEDE72800FD
:1004E000FFF7BAFFE9E700008023002110B5164AA4
:1004F0005B05197001339342FBD18021134B4905F1
:100500001A685B685C18D218E01AD11A002B17DC45
:1005100003210F4A13688B4313600E4A0E4B116878
:100520000B43136041220D4B52421A60FFF7FEFD50
:1005300004230B4A152011680B431360FFF7B0FF2B
:100540000978013B0170DFE700040010C0000000E3
:100550001000044080800440C0000400C0C100407E
:10056000002000A002B4714649084900095C490016
:100570008E4402BC7047C046002243088B4274D3AD
:1005800003098B425FD3030A8B4244D3030B8B4294
:1005900028D3030C8B420DD3FF22090212BA030C9D
:1005A0008B4202D31212090265D0030B8B4219D37E
:1005B00000E0090AC30B8B4201D3CB03C01A52419E
:1005C000830B8B4201D38B03C01A5241430B8B42E6
:1005D00001D34B03C01A5241030B8B4201D30B03CF
:1005E000C01A5241C30A8B4201D3CB02C01A5241F6
:1005F000830A8B4201D38B02C01A5241430A8B42B9
:1006000001D34B02C01A5241030A8B4201D30B02A1
:10061000C01A5241CDD2C3098B4201D3CB01C01ABB
:10062000524183098B4201D38B01C01A52414309C5
:100630008B4201D34B01C01A524103098B4201D3B3
:100640000B01C01A5241C3088B4201D3CB00C01A20
:10065000524183088B4201D38B00C01A5241430898
:100660008B4201D34B00C01A5241411A00D20146BD
:10067000524110467047FFE701B5002000F0F0F846
:1006800002BDC0460029F7D076E7704703460B430A
:100690007FD4002243088B4274D303098B425FD37B
:1006A000030A8B4244D3030B8B4228D3030C8B42A7
:1006B0000DD3FF22090212BA030C8B4202D312128D
:1006C000090265D0030B8B4219D300E0090AC30B62
:1006D0008B4201D3CB03C01A5241830B8B4201D30F
:1006E0008B03C01A5241430B8B4201D34B03C01AF8
:1006F0005241030B8B4201D30B03C01A5241C30A70
:100700008B4201D3CB02C01A5241830A8B4201D3E0
:100710008B02C01A5241430A8B4201D34B02C01ACA
:100720005241030A8B4201D30B02C01A5241CDD26F
:10073000C3098B4201D3CB01C01A524183098B42BA
:1007400001D38B01C01A524143098B4201D34B01A3
:10075000C01A524103098B4201D30B01C01A524106
:10076000C3088B4201D3CB00C01A524183088B428D
:1007700001D38B00C01A524143088B4201D34B0076
:10078000C01A5241411A00D20146524110467047E8
:100790005DE0CA0F00D04942031000D340425340ED
:1007A00000229C4603098B422DD3030A8B4212D3AD
:1007B000FC22890112BA030A8B420CD389019211DF
:1007C0008B4208D3890192118B4204D389013AD01C
:1007D000921100E08909C3098B4201D3CB01C01AF1
:1007E000524183098B4201D38B01C01A5241430904
:1007F0008B4201D34B01C01A524103098B4201D3F2
:100800000B01C01A5241C3088B4201D3CB00C01A5E
:10081000524183088B4201D38B00C01A5241D9D276
:1008200043088B4201D34B00C01A5241411A00D2F7
:100830000146634652415B10104601D34042002BF3
:1008400000D54942704763465B1000D3404201B572
:10085000002000F005F802BD0029F8D016E7704727
:100860007047C04630B572B60F4C042280250B7815
:1008700022602B4208D000000000000000000000B1
:1008800000000000226007E000002260000000007D
:1008900000000000000000006D08E9D1491C01388B
:0C08A000E4D162B630BD0000002300A0CF
:0808AC006B10F4046508000064
:04000003000004A055
:00000001FF
